1A1996821234567         FICTOUS COMPANY                                                                                         
2ASALT LAKE CITY           UT             84101                                                                                 
1B1996821234567DEC                                                                                                              
2B              FICTOUS COMPANY                                                                SALT LAKE CITY      UT     84101 
1E1996821234567         FICTOUS COMPANY                                                                                         
2ESALT LAKE CITY           UT             84101FR                                                                               
1W519347890FRANK BUILD                520 WEST 33RD SO                        SALT LAKE CITY           UT             84101     
2W0084000 0000000 000084000 005208000005350000000000 000000000 BUILDF0000000000000000000000000000000000000     000000000 0000000
3W0000840000001218                                                                                                              
1S519347890FRANK BUILD                520 WEST 33RD SO                        SALT LAKE CITY           UT             84101 16  
2S0000015012551296000084000000000000030192         16000084000000022500000000000F     0000000000000000                          
1W519468939JOHN DRILL                 12345 SO 21ST E                         SALT LAKE CITY           UT             84101     
2W0040000 0000000 000040000 002480000002675000000000 000000000DRILLJ 0000000000000000000000000000000000000     000000000 0000000
3W0000400000000580                                                                                                              
1S519468939JOHN DRILL                 12345 SO 21ST E                         SALT LAKE CITY           UT             84101 16  
2S0000015012551296000040000000000000010192         16000040000000011250000000000F     0000000000000000                          
1W519469876JOHN CUTTER                333 BROADWAY                            SALT LAKE CITY           UT             84101     
2W0074000 0000000 000074000 004588000005922000000000 000000000CUTJ   0000000000000000000000000000000000000     000000000 0000000
3W0000740000001073                                                                                                              
1S519469876JOHN CUTTER                333 BROADWAY                            SALT LAKE CITY           UT             84101 16  
2S0000015012551296000074000000000000020191         16000074000000025220000000000F     0000000000000000                          
1W523507788CINDY CLERK                5432 E 4TH SO                           SALT LAKE CITY           UT             84101     
2W0045000 0000000 000045000 002790000004921000000000 000000000CLERKC 0000000000000000000000000000000000000   D 000002100 0000000
3W0000450000000492                                                                                                              
1S523507788CINDY CLERK                5432 E 4TH SO                           SALT LAKE CITY           UT             84101 16  
2S0000015012551296000045000000000000020194         16000045000000022320000000000F     0000000000000000                          
1I0000243000 0000000000 0000243000 0000015066 0000018868       000000000000000000000000000000000000000000000000000 0000002100   
2I0000000000 0000000000 0000000000 00000243000 0000003363                                                                       
1T00000040000000243000 0000000000000000000243000 000000015066 000000018868000000000000000000000000000000000000000000000000      
2T000000000000 0000000002100 000000000000 0000000000000 0000000000000 0000000243000 000000003363                                
1F00000040000000000243000 0000000000000000 0000000000243000 0000000000018429 0000000000018868 0000000000000000                  
