101 12310372919273013219806021457A094101U.S. BANK              SALT LAKE FURNITURE MFG7777777 
5200SALT LAKE FURNIT                    1927301321PPDDIRCT DPST980602980602   1123103727777777
62222 123456123456789012345670000183241401K           Mr. 401K Test           0777777700000001
8200000001212345    0000001832410000000000001927301321                         123103727777777
9000001000001000000010002212345000000183241000000000000                                       
